:020000040800F2
:1050000000500020D9D4000821D5000821D500087F
:1050100021D5000821D5000821D500080000000096
:1050200000000000000000000000000021D5000882
:1050300021D500080000000021D5000863C8000841
:1050400021D5000821D5000821D5000821D5000868
:1050500021D5000821D5000815D200081BD2000870
:1050600021D2000827D200082DD2000821D500083F
:1050700021D5000821D5000821D5000821D5000838
:1050800021D5000821D5000821D5000821D5000828
:1050900085ED000821D5000821D5000833D200088D
:1050A00021D5000889DA000821D500089DDA00081A
:1050B000A1DA0008B5DA0008C9DA0008CD950008C1
:1050C000D9950008E5950008F195000821D500085C
:1050D00021D5000815D100082DD1000845D10008C0
:1050E00049D2000871CD000891ED000800000000D1
:1050F00000000000000000000000000000000000B0
:0C51000000000000000000005FF808F153
:10510C00034613F8012B002AFBD1181A01387047FB
:10511C0080F0004002E000BF81F0004142001FBF60
:10512C005FEA410392EA030F7FEA226C7FEA236C69
:10513C006AD04FEA1262D2EB1363C1BFD21841405E
:10514C0048404140B8BF5B42192B88BF704710F0F4
:10515C00004F40F4000020F07F4018BF404211F097
:10516C00004F41F4000121F07F4118BF494292EAFF
:10517C00030F3FD0A2F1010241FA03FC10EB0C002B
:10518C00C3F1200301FA03F100F0004302D54942B8
:10519C0060EB4000B0F5000F13D3B0F1807F06D365
:1051AC0040084FEA310102F10102FE2A51D2B1F15D
:1051BC00004F40EBC25008BF20F0010040EA030052
:1051CC007047490040EB0000013A28BFB0F5000FD2
:1051DC00EDD2B0FA80FCACF1080CB2EB0C0200FA88
:1051EC000CF0AABF00EBC25052421843BCBFD040D7
:1051FC001843704792F0000F81F4000106BF80F451
:10520C0000000132013BB5E74FEA41037FEA226C13
:10521C0018BF7FEA236C21D092EA030F04D092F0DE
:10522C00000F08BF0846704790EA010F1CBF002012
:10523C00704712F07F4F04D1400028BF40F000406F
:10524C00704712F100723CBF00F50000704700F08F
:10525C00004343F0FE4040F4000070477FEA2262B6
:10526C0016BF08467FEA23630146420206BF5FEA87
:10527C00412390EA010F40F4800070474FF0000387
:10528C0004E000BF10F0004348BF40425FEA000C4E
:10529C0008BF704743F0964301464FF000001CE0F6
:1052AC0050EA010208BF70474FF000030AE000BF4C
:1052BC0050EA010208BF704711F0004302D540428A
:1052CC0061EB41015FEA010C02BF844601460020FC
:1052DC0043F0B64308BFA3F18053A3F50003BCFA17
:1052EC008CF2083AA3EBC25310DB01FA02FC6344C4
:1052FC0000FA02FCC2F12002BCF1004F20FA02F2CB
:10530C0043EB020008BF20F00100704702F12002BD
:10531C0001FA02FCC2F1200250EA4C0021FA02F21E
:10532C0043EB020008BF20EADC7070474FF0FF0C23
:10533C001CEAD0521EBF1CEAD15392EA0C0F93EA1E
:10534C000C0F6FD01A4480EA010C400218BF5FEAC0
:10535C0041211ED04FF0006343EA501043EA511133
:10536C00A0FB01310CF00040B1F5000F3EBF49002D
:10537C0041EAD3715B0040EA010062F17F02FD2A31
:10538C001DD8B3F1004F40EBC25008BF20F0010014
:10539C00704790F0000F0CF0004C08BF49024CEA2B
:1053AC00502040EA51207F3AC2BFD2F1FF0340EABD
:1053BC00C250704740F400004FF00003013A5DDC2E
:1053CC0012F1190FDCBF00F000407047C2F100026F
:1053DC00410021FA02F1C2F1200200FA02FC5FEA5C
:1053EC00310040F1000053EA4C0308BF20EADC70A6
:1053FC00704792F0000F00F0004C02BF400010F418
:10540C00000F013AF9D040EA0C0093F0000F01F0C4
:10541C00004C02BF490011F4000F013BF9D041EAE6
:10542C000C018FE70CEAD15392EA0C0F18BF93EAE8
:10543C000C0F0AD030F0004C18BF31F0004CD8D112
:10544C0080EA010000F00040704790F0000F17BF99
:10545C0090F0004F084691F0000F91F0004F14D0DF
:10546C0092EA0C0F01D142020FD193EA0C0F03D137
:10547C004B0218BF084608D180EA010000F000403A
:10548C0040F0FE4040F40000704740F0FE4040F415
:10549C00400070474FF0FF0C1CEAD0521EBF1CEAB4
:1054AC00D15392EA0C0F93EA0C0F69D0A2EB0302D2
:1054BC0080EA010C49024FEA402037D04FF080536C
:1054CC0043EA111143EA10130CF000408B4238BF31
:1054DC005B0042F17D024FF4000C8B4224BF5B1A3F
:1054EC0040EA0C00B3EB510F24BFA3EB510340EA8D
:1054FC005C00B3EB910F24BFA3EB910340EA9C003B
:10550C00B3EBD10F24BFA3EBD10340EADC001B01AA
:10551C0018BF5FEA1C1CE0D1FD2A3FF650AF8B424E
:10552C0040EBC25008BF20F0010070470CF0004C5B
:10553C004CEA50207F32C2BFD2F1FF0340EAC25086
:10554C00704740F400004FF00003013A37E792F047
:10555C00000F00F0004C02BF400010F4000F013AA5
:10556C00F9D040EA0C0093F0000F01F0004C02BFA0
:10557C00490011F4000F013BF9D041EA0C0195E709
:10558C000CEAD15392EA0C0F08D142027FF47DAFA2
:10559C0093EA0C0F7FF470AF084676E793EA0C0F92
:1055AC0004D14B023FF44CAF08466EE730F0004C90
:1055BC0018BF31F0004CCAD130F000427FF45CAF20
:1055CC0031F000437FF43CAF5FE700BF4FEA40028D
:1055DC00B2F1FE4F0FD34FF09E03B3EB12620DD915
:1055EC004FEA002343F0004310F0004F23FA02F07F
:1055FC0018BF404270474FF00000704712F1610F26
:10560C0001D1420205D110F0004008BF6FF00040FC
:10561C0070474FF00000704710B5054C237833B934
:10562C00044B13B10448AFF300800123237010BD69
:10563C000C02002000000000ACF6000808B5034B7B
:10564C001BB103490348AFF3008008BD0000000004
:10565C0010020020ACF60008F8B505460C460026F2
:10566C008F18BC4207D02B6828461B6814F8011B06
:10567C0098470644F5E73046F8BD38B500F1080503
:10568C00D0F8A4300446284698474FF6FD72904255
:10569C00034613D8284694F8A92094F8A81003F0D0
:1056AC005CF894F88230032B08D8DFE803F0020989
:1056BC000F1394F8A830184484F8A800012038BDC2
:1056CC0094F8A930184484F8A900F7E794F8A830A6
:1056DC00181AF1E794F8A930181AF4E70022034BD2
:1056EC00034904481A6000F0E1BF00BF2802002003
:1056FC009D5700086803002010B500210D4C0E4882
:10570C0003F006FD4FF4E1310C4808F043FB204652
:10571C0003F0E1FB204602F0E0FD0021204603F0FF
:10572C00E2FB00F079F8064B064ADA6114229A8201
:10573C0010BD00BF34020020840900205C0D002045
:10574C0068030020E95600080121014802F024BB3F
:10575C002C04002070B50C4D064605F108042046BB
:10576C0002F06FFD2046094903F060F84FF44063E6
:10577C0031462846A5F8A83008F017FA2046BDE8AF
:10578C00704002F068BD00BF2C020020FE09010829
:10579C0038B5074C0D46226812B90648FFF7DAFFF8
:1057AC0025B1054800F088FF0023236038BD00BFF9
:1057BC0028020020C4F6000868030020002370B5FE
:1057CC000E4A0F4C04F1080522600E4A284663600D
:1057DC00C4F8A420A4F8A83003F0DBF90A4B28463F
:1057EC0023600A4A0A4B0B4902F08CFD2846BDE89F
:1057FC00704017231622FF2102F032BCD8F60008A5
:10580C002C0200208F8B0008E8F600087D80000831
:10581C00697F0008F813010837B50E4D0E4C284669
:10582C0000F094F92A4620460C4900F0CDF801F01E
:10583C0025FE012201460A4801F00CFF1E231D2201
:10584C002146CDE9003207481C23074A01F0E4FA4F
:10585C0003B030BDD8020020680300202C020020C9
:10586C00C4030020A40300201803002070B50024FA
:10587C00194D1421284600F0ABFD184B184E2B6027
:10588C002433EB60022123463046C5E90B44154A0C
:10589C00154D00F065FF3346F481144E0121284666
:1058AC00134A00F05DFF2B4601213046114AEC8172
:1058BC00114D00F055FF3346F481104E0121104A72
:1058CC00284600F04DFF2B46012130460D4AEC8155
:1058DC0000F046FFF48170BD6803002038F8000822
:1058EC0058030020A0F700084803002038030020CC
:1058FC0074F7000848F7000828030020180300205C
:10590C001CF70008F0F60008014800F03BB800BF97
:10591C0068030020704710B50446182108F0EBFA14
:10592C00204610BD38B5036A0546ABB9182008F0FF
:10593C00DEFA044600F04AFC084B2360084B1B6857
:10594C00DB6A93F85F302C62632BE37C94BF43F0EB
:10595C00010303F0FE03E374286A38BD24F8000841
:10596C00A0030020064B10B5036024330446C3602B
:10597C00406810B1012108F0BEFA204610BD00BFEE
:10598C00DCF8000810B50446044B03F108022C3374
:10599C000260C360FFF7E6FF204610BD30F8000838
:1059AC0010B50446FFF7EEFF2046382108F0A3FAA5
:1059BC00204610BD10B50446FFF7D4FF20462C211D
:1059CC0008F099FA204610BD536BC0E90B120BB1CD
:1059DC00136B33B9074B5363074B13634FF441639A
:1059EC001387D3690BB9054BD361D3680BB9034B40
:1059FC00D36070471CF9000804F9000834FA000859
:105A0C0037B504462B4A656890681268237A82423F
:105A1C004AD11A462846284901F0A1FCD4E90B03C7
:105A2C00D968083002F002FFE06A083002F0EDFE9F
:105A3C00E06A0021083002F00FFFD4E90B02137A60
:105A4C0090F98E10557A03F00F0305F00F050B44F7
:105A5C002B441178A38608305D1B02F074FFE06ABA
:105A6C0094F8342090F85F300092002208301146F0
:105A7C0002F09DFBD4E90B031979083002F063FFA7
:105A8C00D4E90B035B7A80F8A950C3F3031380F8B5
:105A9C00A830616808F089F8236BA28E93F83A302D
:105AAC001344A38603B030BD0022294600F08EFEBD
:105ABC00B4E700BFA4030020DAF7000810B4C06AF2
:105ACC009DF80440DBB20194D2B210BCC9B20830CC
:105ADC0002F046BB2DE9F341C36A044693F85F60BC
:105AEC008569036B0F4608464FF0000893F82C307D
:105AFC00A6EB13163DB3AB79F61A6B7903B9DFB18C
:105B0C00D4E90B0393F82810083002F01CFF236B28
:105B1C00286893F82C2085F8058095F804C0E9795D
:105B2C0050F82C00AB7902F00F02CDE900102046A2
:105B3C003146FFF7C3FF0120236BED6893F82D303E
:105B4C00A6EB1316D6E702B0BDE8F08100220123C4
:105B5C0010B50D4CC0E90032C0E90342C0E908237E
:105B6C00826242F2220241F211118285074A0181BE
:105B7C00C261074A43614263064A01830263064AD3
:105B8C0080F83C30826310BD1502010834FA00081D
:105B9C003AF9000834F90008080601012DE9F04F24
:105BAC000D461646177E994695F98E40737E07F082
:105BBC000F073A1903F00F03134495F86020F069AE
:105BCC0085B0D21A9DF838109DF83CB0174400B13E
:105BDC00274495F85F4000294FEA540414BFA046AF
:105BEC004FF00008BBF1000F30D096F8201005F1F3
:105BFC00080A5046CDE9023202F0A5FE029B039A38
:105C0C00DBB25FFA88F80093414623465046D2B285
:105C1C0002F0CDFABBF1000F1AD096F824105046C2
:105C2C0002F091FE4946504602F010FE4946241AF5
:105C3C00284604EBD47408EB640485F8A84085F876
:105C4C00A97005B0BDE8F04F07F0AFBF317CCEE7CF
:105C5C00317DE4E7594B2DE9F04F1A688BB0D2E94E
:105C6C000B54027D0746022A8B4605F10806039366
:105C7C000DD13046217C02F066FE95F8602095F837
:105C8C005F30009200223046114602F090FA304606
:105C9C00E16902F0CBFD142279680DEB020001F0F2
:105CAC005EFB94F8089095F98E8094F809A0237EF9
:105CBC0009F00F09E269C1440AF00F0A03F00F035F
:105CCC00CA4430462178002A08BF994602F03BFEB0
:105CDC005FFA8AF295F85F30009200223046114646
:105CEC0002F065FA3046217902F02DFE637A2846DF
:105CFC00C3F3031385F8A83085F8A99005A907F01C
:105D0C0054FF94F83A2094F809909244227AD044A3
:105D1C0002F00F029044237EE26909F00F0903F0B0
:105D2C000F03C1440AB903EB0A083046217C02F088
:105D3C000AFE5FFA89F295F85F3000213046009236
:105D4C005FFA8AF202F033FA3046217D02F0FBFD55
:105D5C00637A85F8A980C3F3031385F8A830039BF5
:105D6C0028461B68596807F020FF3B7C73B15B46E3
:105D7C00002205A9384600F089FA0023019000930F
:105D8C0022462946384605ABFFF708FF7B7C73B1EA
:105D9C005B46012205A9384600F078FA01230190F0
:105DAC00009322462946384605ABFFF7F7FE3046EE
:105DBC0002F051FA0BB0BDE8F08F00BFA003002039
:105DCC002DE9F04F1E460D46036BB6F800C093F854
:105DDC0039A087B0A2EB0A0704469046C06AD2B23B
:105DEC002CF0020189B207EBD77703921CF010025A
:105DFC0093F8389005EB670731805FFA85FB00F16B
:105E0C00080004927CD093F8201002F09CFDE06A0C
:105E1C00039A90F85F300021009208305A4602F045
:105E2C00C6F9D4E90B0393F82410083002F08BFD6B
:105E3C00236B597E5B6BCDE900A33A464B4620465B
:105E4C000909FFF73BFE0021504801F0FBFF206BD6
:105E5C00437E017EC06909EB131202EB131201F0B1
:105E6C000F0100287DD10D44E36AEDB283F8A82020
:105E7C0083F8A9500022237A6168304600F0A6FC12
:105E8C006168E06A07F091FE304600F04BFC024678
:105E9C0000286CD0D4E90B02137E90F85F6092F866
:105EAC00241009EB13130830F61A02F04CFD236B87
:105EBC003A461B6B3146CDE900A320464B46FFF713
:105ECC00FDFD002263681A70E06A616890F85F60FB
:105EDC00083002F0BBFCD4E90B32127E83F8A950D7
:105EEC00A6EB1216361A83F8A8606168184607F0FC
:105EFC005CFE0021254807B0BDE8F04F01F0A2BFC1
:105F0C0011F00102059218D093F8201002F01BFD3D
:105F1C00E06A039A90F85F300499009208305A4670
:105F2C0002F045F9D4E90B0393F82410083002F081
:105F3C000AFD236B597E1B6B7DE7197C02F003FD78
:105F4C00E06A039A90F85F300599009208305A463F
:105F5C0002F02DF9D4E90B03197D083002F0F3FCA3
:105F6C0071E703F00F03A8EB030845447CE7337B90
:105F7C00982B05D1227A0649606801F0F0F9A3E765
:105F8C003146204600F058FB9EE700BF2C04002051
:105F9C0014F800082DE9F84F2A4B07469E68C36A8F
:105FAC00B47C93F86050B0F936306D1A95FBF3F56C
:105FBC00737CEDB29D4228BF1D46AC4238BF002415
:105FCC008B464FF097084FF098094FF0FF0A22BF0D
:105FDC000134641BE4B22544EDB2AC422CD0B37C4A
:105FEC003288D4B9ABB942F0010242F002023280DD
:105FFC0086F80C9086F810A0334659463846B7F907
:10600C003620FFF7DDFEB7F9363001349B44E4B29D
:10601C00E3E722F0010292B2E7E79C4216BF22F0BE
:10602C00010242F0010292B2611E42F0020286F8B5
:10603C000C8031743280DFE797233373FF23337482
:10604C00BDE8F88FA4030020C36A2DE9F74304468A
:10605C00002B00F0B3800025867D857500F008FAD2
:10606C00022E55D1D4E90B03D969083002F0DEFBBE
:10607C00E06A4FF00108083002F0D2FBE06A90F9B8
:10608C008E300830E386236B197C02F05CFCE06AEE
:10609C00294690F8602090F85F30009208302A462C
:1060AC0002F085F8226B2046137E527E03F00F031C
:1060BC0002F00F021344E28E1344E386FFF7A0FCB8
:1060CC002946404801F0BEFE01212046FFF702FDA3
:1060DC0029463C4801F0B6FED4E90B03D9690830D7
:1060EC0002F0A4FB384BB4F934109F683B7B972B20
:1060FC0014D13B88980701D4002E5CD02046FFF7C2
:10610C0049FFE06A083003B0BDE8F04302F0A3B8E1
:10611C0029462046FFF7DEFC8046DDE7E36AB4F94A
:10612C00362093F8605038466D1A95FBF2F500F066
:10613C007CFCC3B29D42237C36DCC5F101020244D7
:10614C00D2B2934218BF0226227442B13B887F68B8
:10615C00590644BF02F1FF32D2B2002FF5D1B4F987
:10616C003450DFF8609037B3E26AB4F9363092F805
:10617C0060202B4493421EDC3B885A0612D50EB984
:10618C009B070CD50021484601F05CFE3B46294696
:10619C002046B4F93620FFF713FE4FF00108B4F98E
:1061AC0036301D447F68DEE7FF2B4FF0FF0318BF2E
:1061BC0002262374D3E7B8F1000FA2D103B0BDE8D7
:1061CC00F08300BF2C040020A40300200021044A0B
:1061DC0041600260C27C018222F00202C2747047EC
:1061EC0068F8000810B5C47C4AB144F00604C0E954
:1061FC000113022364F00704C474037510BD24F06A
:10620C00040444F00204F2E710B5C37C044623F006
:10621C00020363F00703C374054B1868437A012B20
:10622C0001D100F049FA002323822375636010BD6D
:10623C00A00300200346407C19B91B7C002B18BF1F
:10624C001846704770B5837C04468B42154604D0C3
:10625C00037D022B1CBF01230375A1746DB1204675
:10626C00FFF7E8FF05462046FFF7CEFFA3685BB1BA
:10627C002846E168BDE870401847237D23B12368A8
:10628C0020469B689847257570BD0000F8B50546FB
:10629C000C461F461646BAB9017C0239022998BF32
:1062AC000D4B204694BF53F821100C4909F036F9D8
:1062BC002B7C0BB16B7C4BB9013C14F8010F48B132
:1062CC0009F05AF92070F8E7417CE6E7BE42F3D0BA
:1062DC000020F8BD0120FCE774F8000894F80008D1
:1062EC0070B5C37C04469A071ED5104B1B685D68BD
:1062FC001E7A2846324609F02BF9E37CDB0708D4DA
:10630C002846FEF7FDFE2023864202DD2B54013089
:10631C00FAE70023AB55237D022B1CBF0123237509
:10632C00E37C63F00703E37470BD00BFA00300209F
:10633C0010B50446104621741A46607411B1011E42
:10634C0018BF0121054B186808B101F0F3F9237D42
:10635C00022B1CBF0123237510BD00BFC4030020FA
:10636C0038B50446838A1546438203689B68984770
:10637C00A36A23B930B1C37C13F0020002D0012010
:10638C0084F8245038BD00000346006A68B1C27C12
:10639C0092070AD50B4A116801B1C98893F82420D9
:1063AC00003A18BF0122FFF74DBF9A6A32B1054976
:1063BC00086800B1C08893F8241010471A68184672
:1063CC0092691047C4030020A0F10C00FFF7DCBF5A
:1063DC0038B5104B04460360481C0D4607F089FD88
:1063EC00012363720C4B606003F108022260782277
:1063FC002C33E3600023A282022263822374A36203
:10640C00E361A3612362054B20462572A2751C60D3
:10641C0038BD00BFA4F80008D4F80008A003002081
:10642C0010B504460648016800F08EFD4FF6FF7368
:10643C006382E36913B1BDE81040184710BD00BF7B
:10644C00A40300204FF6FF7370B50225438200238E
:10645C00044683628575FFF7E3FF2B4604F10C02BB
:10646C00FA21BDE87040014801F05FBC2C0400200B
:10647C0038B5438A04464FF6FF751BB9FFF7D0FFBA
:10648C00658238BDAB421CBF03F1FF334382F8E792
:10649C0030B5154685B004460C22084601A900F01B
:1064AC0036FA2DB9606801A909F038F805B030BD8D
:1064BC0001A8FEF725FE237A01A91B1A6068DBB23E
:1064CC001844F1E770B5CB8905460C4632B9027A0F
:1064DC0041682046BDE8704000F0B6B91946204628
:1064EC0000F0C1F9297AC2B28A4228BF0A4668680C
:1064FC00891AE38901320144EBE700008B6870B51F
:10650C0093F820300546012BCC8904D0022B11D0F6
:10651C00104B114901E0114B1149002C14BF1C46C2
:10652C000C462E7A4AB9324621466868BDE870405E
:10653C0000F015BF0B4B0C49EFE72046FEF7E0FDD2
:10654C00C3B29E42686894BFB31BF31A324621460D
:10655C001844EBE7C7F80008CDF80008BCF80008B1
:10656C00BFF80008C3F80008B8F800080023F0B51D
:10657C000D4689B0044608698DF80C301746FFF7B4
:10658C0025F80A2203A906F0C7FF14222E2103A81E
:10659C0000F062FEAB68B3F9180000F06DFE2D69D7
:1065AC0006462846FFF712F8FEF76CFE0146284611
:1065BC00FEF7B2FD05463046FEF764FE014628465E
:1065CC00FEF7B4FE20F00040FFF700F8142301465C
:1065DC0000933246302303A800F05AFE2FB96068AE
:1065EC0003A908F09BFF09B0F0BD03A8FEF788FDD6
:1065FC00237A03A9181A63681844F2E730B50446E5
:10660C008D68084689B0097C2AB9237A009363689F
:10661C00A84709B030BD14230022009303ABA84750
:10662C0003A8FEF76DFD237A03A9181A63681844B2
:10663C0008F074FFEDE700000B7B70B4642B04468C
:10664C000E4615462BD00AD8022B22D0032B23D072
:10665C00012B1BD06068144970BC08F05FBF662B1F
:10666C001DD004D8652BF5D170BCFFF77FBF982BDC
:10667C0007D8952BEED92A463146204670BCFFF739
:10668C00BDBF3833DBB2032BF5D9E3E770BCFFF7A2
:10669C00FFBE70BCFFF716BF70BCFFF72FBF0DB964
:1066AC0063681D7070BC704797F800080023816206
:1066BC0080F8243070470000002310B5044680F8A1
:1066CC00243083620348016800F03EFCA38A638295
:1066DC0010BD00BFA403002038B5104D0446284659
:1066EC0000F0C4FBA868037B972B10D10023028811
:1066FC00837442F002020280427C1946084801F081
:10670C001EF8A37D012B9CBF0223A37538BD00216D
:10671C0000F09BF9421E002392B2EEE7A403002086
:10672C00C4030020037B03F0FD02642A0BD0992BD9
:10673C0009D0962B07D0972B07D1007CA0F1FF0333
:10674C005842584170470120704700207047002381
:10675C0013B5009303228468017CA04702B010BDDE
:10676C00017302B182604360422303807047038847
:10677C001A0744BFC3F30903038003886FEA8353EA
:10678C006FEA93530380704710B502880446C9B171
:10679C0042F0100343F002032380237BC72B10D954
:1067AC0079B9D3060DD5FF2320462374FFF7ECFFF0
:1067BC002388204643F002032380FFF7D8FFFFF71E
:1067CC00C6FF10BD22F010039BB2E3E72DE9F341A5
:1067DC001C46037BD0F80880952B01EB0205D7B241
:1067EC000DD9A41A00942B460122017CC0472846DF
:1067FC00FEF786FC3844C0B202B0BDE8F081E21B63
:10680C0041462846D2B200F0AAFDF3E7037B952B54
:10681C0096BF8368C089988A7047027B10B5952A09
:10682C0002D9FFF794FF10BD8368DA69002AFAD009
:10683C00FFF7ECFFBDE810401047037B952B96BF8C
:10684C008368407C188B704738B50C4681681546B8
:10685C00096A204651F8231008F07AFE00232C44D4
:10686C0004F8013C38BD83681B6A53F82100FEF71D
:10687C0047BC83685B8C012B09D9B3F57A7F08D8A8
:10688C00642B09D80A2B8CBF64200A207047012086
:10689C00704742F2107070474FF47A70704702469E
:1068AC0038B5002308468968538013804D8CB0F9A5
:1068BC000E30B1F92040012D1C4402DC148010462E
:1068CC0038BD2BB294FBF3F31380FFF7D2FF94FB8C
:1068DC00F5F305FB1343B0FBF5F5002BB8BF5B429A
:1068EC006B435380EBE783685B8C012B09D9B3F5C1
:1068FC007A7F08D8642B08D80A2B8CBF0220012081
:10690C007047002070470420704703207047F0B593
:10691C0085B014460D460646FFF7E5FF074631469F
:10692C0003A8FFF7BCFF002305222846BDF90C1075
:10693C00009400F0F8FC67B101222E21284600F0EB
:10694C008BFC30233A462846BDF80E10009400F01C
:10695C00F9FC2846FEF7D4FBC0B2844206D9B168D4
:10696C00221AD2B22431284400F0F9FC05B0F0BD53
:10697C0038B5C38904468B42154610D0FFF75DFF2E
:10698C0088420CD32388204643F002032380FFF770
:10699C00EEFEE1811DB9BDE83840FFF73EBF38BDC2
:1069AC002DE9F0470746884691461E4604460025C9
:1069BC0074B12046FFF72AFF82464046FFF726FFB8
:1069CC00237B824508BF4D46642B04D076B97DB13C
:1069DC002846BDE8F08733463A4641462069FFF722
:1069EC00DFFF0028F2D00546002EF1D02046B0473C
:1069FC006468DDE7044A0B461268002814BF0146A0
:106A0C0011461046FFF7CCBFA4030020024600231A
:106A1C0010B540B10488640603D58B4204D0013311
:106A2C00DBB24068F5E7104610BD002360B1028868
:106A3C00510607D5D10701D518467047D206FBD4AD
:106A4C000133DBB24068F1E77047034600203BB1ED
:106A5C0011B91A88520601D50130C0B25B68F6E74D
:106A6C0070470000024B1888421C1A80704700BF08
:106A7C000000002070B5044616461D460022069BF9
:106A8C00FFF76EFE9DF81430204663749DF81030AD
:106A9C00E681A560237470BD4369427C10B59918DA
:106AAC00002301F8013CD9B28A4203D941695C1C2C
:106ABC00C95C31B900249A4205DD4169CC540133DB
:106ACC00F9E72346EFE710BD2DE9F041476990F84F
:106ADC00118004461546384642460E4608F026FDFF
:106AEC0098B142463146384608F032FD2046FFF751
:106AFC00D3FF238843F002032380FFF738FE25B928
:106B0C002046BDE8F041FFF788BEBDE8F08110B526
:106B1C00437C013B99420BDA43695A54FFF7BCFFA3
:106B2C00038843F002030380FFF721FE012010BD10
:106B3C000020FCE7034650B10020054A12F8011B67
:106B4C0001308B4203D05E28F8D10020704770478B
:106B5C0040F900082DE9F8431D46037B0646C82B77
:106B6C00DDF8208063D1062A61D8DFE802F00453F7
:106B7C00606045395800002701392F70CCB2737C06
:106B8C00BB4201DC012035E07369BC4213F807906D
:106B9C0013D142465B21284600F05EFB4246494633
:106BAC00284600F059FB42465D21284600F054FB74
:106BBC00B9F1000FE6D00137E1E7B9F1000F09D0C8
:106BCC00337E4246002B0CBF49462A21284600F052
:106BDC0043FBF0E742464946284600F03DFBD1E72F
:106BEC00022926D94369194411F8023C002B14BF21
:106BFC005E200020BDE8F8832A780139C9B212B9A9
:106C0C00FFF785FFBEE70C4B134413F8012CFFF77D
:106C1C007EFFEFE7002DB5D000232B70B2E7436960
:106C2C00194411F8010CBDE8F843FFF783BF0020AD
:106C3C00E0E75E20DEE700BF40F9000870B5022AED
:106C4C00049E0ED0032A06D0012A06D11846064906
:106C5C00F2B200F084FB012005E0BDE87040FFF7C4
:106C6C0079BF4FF0FF3070BDBCF90008F0B5064697
:106C7C001846337B85B0992B27D1032A25D8DFE81A
:106C8C0002F00207421100230370012005B0F0BD91
:106C9C001E4C1F4B0A9A002914BF2146194608F0B6
:106CAC0057FCF2E774691B4D5CB3284600F068F999
:106CBC000346C06C5969026892689047044630B12B
:106CCC0073691969284600F03FF90020DEE768680F
:106CDC0003689B6898470746234604222146FFF722
:106CEC0027FB0F23224669467069FFF76FFD384674
:106CFC00094923462246FFF775FA69463846FFF7DD
:106D0C00EFFA2968DEE74FF0FF30BFE7A6F900087D
:106D1C009FF90008A4030020AEF900082DE9FF47F5
:106D2C00044600250E461027FFF79CFE04F11C0AB2
:106D3C00194B82B2C821CDE900572046CDF808A0E6
:106D4C00FFF798FE384607F0D4F83A4629466061BA
:106D5C0008F01EFB2576FFF785FE0127DFF83C9037
:106D6C0004F134084B4682B299215046CDE90077A4
:106D7C00CDF80880FFF77EFEFFF774FE4B4682B21B
:106D8C0099214046CDE901750095FFF773FE204629
:106D9C00E66404B0BDE8F087496C0008796C000823
:106DAC0038B50025838B012223F0010343F0020345
:106DBC008383838E016323F0010343F00203856414
:106DCC00838608490446FFF77FFE01232376238838
:106DDC00204643F0030329462380FFF7D5FC2046C9
:106DEC0038BD00BF83140108038829B143F00103A7
:106DFC0043F002030380704723F001039BB2F7E7D3
:106E0C0010B504460021FFF7EFFF2046BDE8104007
:106E1C000021FFF7B9BC00002DE9F341C0E90021C6
:106E2C00826000221D460C469DF824700C4EFF23F8
:106E3C0039469DF820800092304600F03EFD3946E0
:106E4C003046084A00F020FC28464146064A00F02D
:106E5C007DFD204623681B6802B0BDE8F041184751
:106E6C00C403002041720008296F0008024B03493B
:106E7C009868FFF7BFBD00BFA40300200D6E00088B
:106E8C008368184620B10278D20702D44068F9E72B
:106E9C00184670477FB506464068002203680D46C9
:106EAC005B689847024640B9F46854B1237B632B66
:106EBC0005D82046A9B2FFF75BFD04B070BDC72B07
:106ECC0018D81548EDB283681A7B972A05D11A8811
:106EDC009D7442F002021A80EFE7FFF7D1FF002108
:106EEC00FFF782FF2946B068FFF790FD0121FFF7FD
:106EFC007BFFE2E72388204643F002032380FFF761
:106F0C0036FC0223217C0093ADF80C500422204661
:106F1C00A56803ABA847D0E7A403002001460148AD
:106F2C00FFF7B8BFA403002038B50446C0680D466F
:106F3C0040B10021FFF728FCB5FA85F1E06849095A
:106F4C00FFF752FFE56038BDF8B546680446777A1E
:106F5C000D46012F10D100210848FFF7E5FF204610
:106F6C00FFF784FF28463946A560FFF73DFF304602
:106F7C00BDE8F840FFF7B0BBF8BD00BFA40300208C
:106F8C0038B5036904463BB9502006F0B0FF0546FE
:106F9C006169FFF7C3FE2561206938BD002313B575
:106FAC00009306228468017CA04702B010BDFF2329
:106FBC0037B5044600210374FFF7E6FB238820460F
:106FCC0043F002032380FFF7D2FB00230322204669
:106FDC00A568217C0093A84703B030BD37B5037C6E
:106FEC0004460B440374038843F002030380FFF749
:106FFC00BEFB002305222046A568217C0093A847F0
:10700C0003B030BD08B5027C437C9A4203D3FFF732
:10701C00CEFF002008BD0121FFF7E0FFFAE70000DA
:10702C002DE9F04104461D4F99B1FE68337BC72B07
:10703C000FD93046FFF7E6FF054650B13046FFF753
:10704C00ADFFAAB283B20021BDE8F041144800F0B4
:10705C0076BB0021E068FFF797FBA5691DB1E068DE
:10706C00FFF7D4FBA8470026B8683146E660FFF767
:10707C00ECFC0546B868FFF7D8FC6A1E83B292B2E6
:10708C003146074800F05BFB63685A7A012A02D14B
:10709C00997D01B99A75BDE8F08100BFA403002069
:1070AC00C403002070B506460C46002936D00D8866
:1070BC0015F0040532D10B7B5A1E012A10D8C16081
:1070CC0001212046FFF760FB2046FFF7B6FB024686
:1070DC00F368DB892946BDE87040114800F02FBBEE
:1070EC00032B09D1C9892A46B1FA81F12046BDE8A2
:1070FC0070404909FFF73CBCC72B0FD9F160204603
:10710C000121FFF741FB20462574FFF77BFF064664
:10711C002046FFF743FFB2B283B2DBE770BD00BF7E
:10712C00C4030020F8B50D7B0646642D0C46476859
:10713C0013D10B889B060DD543695BB1FFF720FF7C
:10714C0005462146FFF72CFE3846B560BDE8F840F1
:10715C00FFF7C2BA21691F480CE0972D1CD11D4EB8
:10716C00B368994205D18B7C43B93046FFF77EFE5C
:10717C0001463046BDE8F840FFF7E6BE013B0B7414
:10718C0020460D730121FFF72FFE2046FFF745FB2C
:10719C00FF2325732374F8BD982D08D100212046B8
:1071AC00FFF722FE0B48FFF761FE0146D3E70846C6
:1071BC00FFF7B8FA20B12046BDE8F840FFF72DBB29
:1071CC0021460448FFF76EFFBB7D002BE3D1012362
:1071DC00BB75E0E7A403002038B5044640680D1EDB
:1071EC00036814BF0222012200215B68984700BB90
:1071FC00E36875B143B11B7BC72B05D9A168204649
:10720C00BDE83840FFF7A0BE2046FFF72FFE014631
:10721C00F5E72BB12046BDE838400121FFF700BF50
:10722C002046FFF72DFE01462046BDE83840FFF70B
:10723C0079BF38BD0148FFF7CFBF00BFA4030020C2
:10724C000022044BC3E90222C3E90022C3E9042251
:10725C009A617047A403002070B5002304462546AC
:10726C002E780134013316B1DE43D642F7D1002219
:10727C002970C25470BD0000013807289ABF024B18
:10728C0053F8200001487047C8F9000800CA9A3B1F
:10729C002DE9F8431446089A0D1E07469846A2F1AC
:1072AC00020904DA4A462D216D42FFF7D5FF95FB02
:1072BC00F4F10A2204FB115194FBF2F40022BD5CA0
:1072CC001346013215B14B45F9DB00254FF00A0C82
:1072DC00092C07EB030218DD4B4516DA91FBF4F091
:1072EC0000F13006F6B2302E18BF45F001051670CD
:1072FC00B8F1000F14D0002D08BF464616700133AC
:10730C0004FB101194FBFCF4E2E70A20B1FBF0F350
:10731C0000FB13110023303111705370BDE8F8835A
:10732C00002DECD1ECE770B51D460023044603702C
:10733C001046FFF7A1FF2B4602462046BDE87040E1
:10734C00FFF7A6BF70B5044610461D46FFF794FF25
:10735C002B4602462046BDE87040FFF799BF70B53A
:10736C00002304460D78013AD8B2261835B1904264
:10737C0003F1010302DA2554CD5CF5E700233370E9
:10738C0070BD70470120704724290C4B0AD833F983
:10739C001130C3F30313042B0CD8094951F82330D3
:1073AC00DA6070472639C8B2092803D8054850F866
:1073BC002110ECE70023DB60FFDE00BFD0180108D2
:1073CC0010000020A818010824290D4B0BD833F904
:1073DC001130C3F30313042B0FD80A4A52F823308D
:1073EC009868C0B270472639CAB2092A05D8064A2D
:1073FC0052F8212033F91230EBE700239B68FFDEB3
:10740C00D018010810000020A818010808461146E1
:10741C0006F0DAB80846114606F030B9084608B549
:10742C0006F05CF9C0B208BD08462428114610B419
:10743C001A4608D80B4B33F91030013308BFFF2024
:10744C0010BC06F01FBDA0F12603DCB2092C06D837
:10745C00054C54F82340034B33F91430EDE7FF206F
:10746C00EEE700BFD0180108A818010810B50446B3
:10747C00042106F040FD204610BD000010B572B688
:10748C00054C23682BB9042006F031FD034B20601A
:10749C00036062B6206810BDC0030020F0F900083C
:1074AC0003689B6918477047704710B50446102154
:1074BC0006F021FD204610BD03689B681847036841
:1074CC001B691847034693F865300846DB0748BF2D
:1074DC0081F001007047FF224FF47F0142710022BE
:1074EC0001608260C260704710B4846803460A462B
:1074FC006CB193F900308078002B05DA23680146D3
:10750C001B68204610BC1847234610BC184710BCFB
:10751C00704710B4034690F900000A46002806DABA
:10752C00986801684C689978234610BC1847DA684B
:10753C0012B1987810BC104710BC704738B504468F
:10754C0080680D4608B9E36823B32378012D03F056
:10755C000F024BD12AB923F00F0343F00103237020
:10756C0018E0511E012916D9032A23D1E2780132E1
:10757C00D2B2142AE2700DD923F00F0343F00403A6
:10758C0023700423294663702046FFF7ADFF0023C8
:10759C002571E37038BD23F00F0343F00303237010
:1075AC000021032320466370E1702571BDE838404B
:1075BC00FFF79ABF042AEDD16179FF29EAD00028A0
:1075CC00E8D0E3782279013303EB9203DBB29942E2
:1075DC00E370DFD2531CFF2BA8BFFF232946237176
:1075EC002046FFF781FF0023E370D3E7012A03F065
:1075FC00F00302D143F00203B1E723706378032B4D
:10760C0006D1002161702046BDE83840FFF781BFEC
:10761C00042BBFD1002301216370F4E738B5034676
:10762C0000F1140400F1640520461034FFF753FFF9
:10763C00AC42F9D1002201211846C3E90022C3E96A
:10764C00022283F864201A6183F8652083F866109F
:10765C0038BD0000002380F8653080F8643001618B
:10766C0090F865304AB143F0010380F8653014217D
:10767C000223034A034800F035BB03F0FE03F4E792
:10768C00357700082C040020F8B5036904460E4633
:10769C00154633B9FFF7F2FE012201462046FFF7EB
:1076AC00D9FF002394F86470A11DDAB2974208D96F
:1076BC00184601331A018A5CB242F6D104EB00146D
:1076CC002562F8BD2DE9F843044600270069FFF751
:1076DC00E7FE2646B84684F8660094F86430BB4250
:1076EC001FDDB17D2069FFF7EAFE317D0546C1F350
:1076FC008011204606F11409FFF7E4FE10B1B5FA2B
:10770C0085F56D0929464846FFF718FF337D01378B
:10771C0003F00F03013B032B98BF48F00108103610
:10772C00DBE74046BDE8F8830148FFF7CBBF00BF5D
:10773C00C403002083688180C28090B2184710B4C3
:10774C000C46032C11461A4605D850F8240010B1EB
:10775C0010BCFFF7EFBF10BC70470029024610B4F5
:10776C00C3880BDB84880B44A34216DC98B2A0427E
:10777C0028BF20469368D08010BC18476BB1846832
:10778C0081EAE170A0EBE170C0B298428EBF00209C
:10779C005B1898B2D0802346EEE710BC704700000F
:1077AC00024B01211868FFF7D8BF00BFC4030020AB
:1077BC00024B4FF0FF311868FFF7CFBFC403002016
:1077CC0010B50D4C94F86530204643F0040384F852
:1077DC006530FFF777FF38B1BDE810400223142164
:1077EC00064A074800F05BBA94F8653003F0FB03D7
:1077FC0084F8653010BD00BFC40300201178000868
:10780C002C040020FFF7DCBF38B50B4B93F8652038
:10781C00920705D593F865305B0701D4FFF7D0FFCD
:10782C000024054D55F8040B10B103689B6898476C
:10783C000134042CF6D138BDC403002070B50446C5
:10784C00064D0749284600F07FFB0649224628468C
:10785C00BDE870400223096900F006BB2C0400202F
:10786C0015780008C4030020F8B590F8643004467D
:10787C00042B0D4616461ED8036933B9FFF7FEFDDF
:10788C00012201462046FFF7E5FE314620462769D6
:10789C00FFF718FE002814BF0222002229463846A2
:1078AC00FFF70AFE94F865309B0702D52846FFF7D0
:1078BC00C5FF012000E00020F8BD2DE9F0419DF846
:1078CC00185090462A4604460F461E46FFF7CCFF3A
:1078DC0070B194F864305A1C84F8642004EB0314DF
:1078EC000023C4F81C80A7756676637515B92575D9
:1078FC00BDE8F081402328462375F9E72DE9F341D3
:10790C00836001230026154604469DF820800373EE
:10791C000A4F0B4B466003600A4A434638460096B2
:10792C00FFF7CBFF434629463846074A0096FFF738
:10793C00C4FF204602B0BDE8F08100BFC4030020A4
:10794C001CFA0008AD770008BD7700082DE9F3415B
:10795C000D4C064623690F46904633B9FFF78EFD52
:10796C00012201462046FFF775FE102006F0BFFAF3
:10797C0014233A460093314643460546FFF7BEFFB3
:10798C00256002B0BDE8F081C40300200148FFF778
:10799C0045BE00BFC40300200122034B83F85421D1
:1079AC0083F85521704700BF2C0400200222034BA2
:1079BC0083F85421012283F8552170472C040020B0
:1079CC000322034B83F85421012283F8552170477D
:1079DC002C0400200422034B83F85421012283F849
:1079EC00552170472C0400200522034B83F85421A9
:1079FC00012283F8552170472C0400200622034BEA
:107A0C0083F85421012283F8552170472C0400205F
:107A1C000722034B83F85421012283F85521704728
:107A2C002C0400200822034B83F85421012283F8F4
:107A3C00552170472C0400200922034B83F8542154
:107A4C00012283F8552170472C0400200A22034B95
:107A5C0083F85421012283F8552170472C0400200F
:107A6C000B22034B83F85421012283F855217047D4
:107A7C002C0400200C22034B83F85421012283F8A0
:107A8C00552170472C0400200D22034B83F8542100
:107A9C00012283F8552170472C0400200E22034B41
:107AAC0083F85421012283F8552170472C040020BF
:107ABC000F22034B83F85421012283F85521704780
:107ACC002C0400201222034B83F85421012283F84A
:107ADC00552170472C040020FF22034B83F85421BE
:107AEC00012283F8552170472C04002038B500235F
:107AFC0011F4405F04461D4601808260037404D17A
:107B0C0005F020FE6060E56038BD05F019FEF9E770
:107B1C00012311F4405F10B50446018082600374A8
:107B2C0005D105F00FFE00236060E36010BD05F089
:107B3C0007FEF8E7B0F9002038B5002A054603889F
:107B4C001EDA1A051CD4C3F30A0413F4405305D1EE
:107B5C0005F0F8FD6B68C01AA0420AE0B3F5805F2F
:107B6C000BD105F0EDFD6B68C31A4FF47A706043CE
:107B7C00834234BF0020012038BD05F0E1FDE9E768
:107B8C000020F9E738B503880546C3F30A0413F45B
:107B9C00405309D105F0D6FD6B68C01A844201DA56
:107BAC00002038BD201AFCE7B3F5805F04BF4FF40A
:107BBC007A735C4305F0C4FD6B68C21A9442EFD330
:107BCC001C44201A4FF47A746043EAE703460C4ACB
:107BDC0000F5A27143F8042B0022DA601A809A6037
:107BEC0014338B42F9D1102380F84C314FF0000341
:107BFC00C0F8442180F85531C0F85021704700BFBF
:107C0C0030FA000830B50022142490F84C51031DB2
:107C1C00D1B28D4208D904FB02F1595E10460029FD
:107C2C0002F10102F4DB30BDFF20FCE7022907D191
:107C3C00B0F5006F22BF4FF47A730121B0FBF3F063
:107C4C00C0F30A0040EA013080B27047F8B505462F
:107C5C00D0F844010C4618B9C5F84411C860F8BDF9
:107C6C00FFF790FF06462046FFF78CFF8642D5F8BB
:107C7C00446103D9E660C5F84441F0E7F56845B1C5
:107C8C002846FFF77FFF07462046FFF77BFF87421A
:107C9C0002D9F460E560E2E72E46ED68EFE72DE9E6
:107CAC00F8430646884617469946FFF7ABFFC5B220
:107CBC00FF2D14D049464046FFF7B8FF6FEA40410C
:107CCC0014246FEA514104FB05640434204689B244
:107CDC003A46FFF70BFF21463046FFF7B7FF284621
:107CEC00BDE8F8832DE9F8430646884617469946C1
:107CFC00FFF788FFC5B2FF2D14D049464046FFF769
:107D0C0095FF6FEA804114246FEA914104FB0564EE
:107D1C000434204689B23A46FFF7E8FE2146304645
:107D2C00FFF794FF2846BDE8F8832DE9F843064693
:107D3C00884617469946FFF765FFC5B2FF2D14D04C
:107D4C0049464046FFF772FF6FEA804114246FEA00
:107D5C00914104FB05640434204689B23A46FFF78E
:107D6C00D7FE21463046FFF771FF2846BDE8F88361
:107D7C00D0F844218A42D36806D1C0F8443100239C
:107D8C00D36070471A4603462BB18B42D868F9D1A1
:107D9C00D0600022DA60704790F8553170B5054616
:107DAC000E463BB1002380F8553190F85401D5F8BC
:107DBC0050319847D5F84441002C39D02046FFF774
:107DCC00B9FE002834D028462146FFF7D1FFA06821
:107DDC00B0B12388217C13F480421FD043F400639C
:107DEC002380B1B103681B689847238803F4405380
:107DFC008BB905F0A7FC2388606023F40063238013
:107E0C0023885B0403D521462846FFF71FFFE4684F
:107E1C00D2E78047E9E705F093FCECE7C4E90222DE
:107E2C00228019B103681B689847E9E78047E7E7A8
:107E3C003EB1D5F8484124B1D4E900039847A46871
:107E4C00F9E770BD70B506460C4605F064FB05F00D
:107E5C0079FC054600213046FFF79EFF05F072FCC9
:107E6C00431BA342F6D370BD10B40446084611461A
:107E7C00D4F85021002A43D0026854694A1E112AB2
:107E8C003CD8DFE802F0090E1114171A1D20232626
:107E9C00292C2F32353B3B3801211A4AA44610BC01
:107EAC0060470221184AF9E70321184AF6E7042132
:107EBC00174AF3E70521174AF0E70621164AEDE7C2
:107ECC000721164AEAE70821154AE7E70921154A6E
:107EDC00E4E70A21144AE1E70B21144ADEE70C21FE
:107EEC00134ADBE70D21134AD8E70E21124AD5E7D6
:107EFC000F21124AD2E71221114ACFE7114ACDE7DE
:107F0C0010BC7047A5790008B9790008CD79000834
:107F1C00E1790008F5790008097A00081D7A000853
:107F2C00317A0008457A0008597A00086D7A000801
:107F3C00817A0008957A0008A97A0008BD7A0008B1
:107F4C00D17A0008E57A0008C0F85011704700009B
:107F5C000148FFF73BBE00BF2C0400202D2970B553
:107F6C000446154609D8272971D92939042917D867
:107F7C00DFE801F0382626283C00A1F14C03012B48
:107F8C0045D93F2963D901F03F03C21892F82C6000
:107F9C00FF2E15D011F0300F4CD12946304642E05F
:107FAC0000252C3414F8010BFF2805D00F2D94BF9D
:107FBC000121022105F008FB0135EDB2162DF1D19E
:107FCC00012070BD234A24481268244BB2FBF0F206
:107FDC00002D14BF1546002559685A68521A95424F
:107FEC00FBDCEDE7104605F0AFFBE9E7032A194A85
:107FFC00194C126834BF05210221B2FBF4F2174B65
:10800C00514358685A68121A9142FBDCD8E701F0C8
:10801C003F010C4494F82C0042B9012105F0D4FA2C
:10802C00294694F82C0005F029FBC9E7022105F03C
:10803C00CBFAC5E7102B01D105F06DFA304605F0EF
:10804C004DFB003818BF012084F82700B8E700204A
:10805C00B7E700BF2400002040420F00001000E0F2
:10806C0080F8371080F8382080F8393070470000DD
:10807C0010B504460846143819460C2828D8DFE8F1
:10808C0000F00C27270718232727272727270A0064
:10809C00104800F0CFFF012010BDA36923B923685D
:1080AC005A7B0D4B5343A36100210A4801F030F871
:1080BC00F1E7A169074801F02FF894F8241005485E
:1080CC00490801F02CF8E6E7024801F09DF8E2E7D8
:1080DC000020E1E784090020A08601002DE9F74F7C
:1080EC00CF18531CDBB2FFB290F89A9000933B462A
:1080FC0005460C46904600F03DFC50B1B9FA89FAA1
:10810C0001264FF0000B4FEA5A1AA74204D185F80A
:10811C009A9003B0BDE8F08F0C9B1B781E4217D0D1
:10812C0085F89A90CDF800B00123424621462846A6
:10813C0000F0A1FB760016F0FF0608BF0C9B04F1C3
:10814C00010404BF01330126E4B208BF0C93DCE741
:10815C0095F89930002BEDD185F89AA00093E3E7C0
:10816C002DE9F3479DF828501E461544EDB20B44FB
:10817C000095DBB281460F461446DDF82CA000F0CA
:10818C00F9FB28B106F10708C8F3C408A54202D1CF
:10819C0002B0BDE8F0872246CDF800A03346394640
:1081AC0048460134FFF79AFFC244E4B2EEE72DE9EA
:1081BC00F7439DF828501F461544EDB2CB18009597
:1081CC00DBB280460E46144600F0D4FB18B14FF0DB
:1081DC000009A54202D103B0BDE8F08322463B461C
:1081EC0031464046CDF80090013400F044FBE4B237
:1081FC00EFE72DE9F74304460026036890F850900A
:10820C0090F8517093F811802368E06C1B7CF5B2E8
:10821C0006FB03F189B2C90089B201447A19013510
:10822C00009120460021D2B2EDB200F03CFEA945EF
:10823C0004D90136BB19DBB29845E5D803B0BDE8CB
:10824C00F083036890F850201B7C00215A43C06CCB
:10825C00D20007F09DB810B50446FFF7CAFF2046C0
:10826C00BDE8104000F047BE10B50446836C80F8A2
:10827C0051101B689847A36C2046BDE810405B6802
:10828C00184710B590F89B3004460BB1FFF7D9FF97
:10829C002046BDE810400021FFF7E6BF38B5044684
:1082AC00FFF7A7FF94F8515094F8501023680D4431
:1082BC005B7CEDB2AB4204D8204600F01CFE0020E3
:1082CC0038BD94F89B3013B12046FFF7BAFF204617
:1082DC002946FFF7C9FF0120F2E710B50446FFF766
:1082EC00D0FF2046FFF7DAFF01460028F9D12046DF
:1082FC00BDE81040FFF7B8BF082303700048704773
:10830C008405002030B585B00D460093094913460D
:10831C00094A044600F01CFE0DF10F00FFF7ECFFBC
:10832C00064B01469DF80F202046009500F00AFCF4
:10833C0005B030BD118E0008C98C0008B189000849
:10834C004218435C507800EB032080B27047002049
:10835C00704790F89700704738B50B780D4603704E
:10836C004B78044643708B788370CB78C3700B7951
:10837C0003714B7943718B798371CB79C3710B7A10
:10838C0003724B7A43728B7A8372CB7AC3720B7BF8
:10839C0003734B7B43738B7B8373CB7BC3730B7CE0
:1083AC00112103742846FFF7CBFF13216082284666
:1083BC00FFF7C6FF1521A0822846FFF7C1FFE08218
:1083CC0038BD70B5847A066862183378D2B2072A41
:1083DC0043FA04F507D8EBB282724FF0FF308840B5
:1083EC0023EA000070BD731C03607378C4F10804A9
:1083FC00E4B2A3402B43083ADBB2D2B2ECE738B577
:10840C00002300F16C05044680F87630C16690F8C4
:10841C0080102846FFF7D5FF94F8811084F874007B
:10842C002846FFF7CEFF94F89A3084F8750084F84C
:10843C007830B3FA83F35B0984F8793038BD10B522
:10844C00FFF7BFFF01234C1EE4B203FA04F4001B38
:10845C0040B210BD012B05D0022B05D033B910440E
:10846C00C0B270470844FBE7801AF9E7401AF7E7F7
:10847C00012B05D0022B05D033B90844C0B270478C
:10848C00801AFBE7401AF9E71044F7E72DE9F04FA3
:10849C0004460E4687B090F8725090F873700592AF
:1084AC0094F874B04FFA87F9ABEB0503DBB2B34227
:1084BC00039328BF33469A4694F871304A4669B202
:1084CC00049394F8700094F87A30FFF7D1FF80464B
:1084DC000498FFF7BFFF05990246A9B194F87810EC
:1084EC0084F89A10009341465346204600F0C3F995
:1084FC00039B35449E42EDB20DD3A5EB0B06013721
:10850C000025F6B2FFB2CBE794F877100029EFD133
:10851C0094F87910E4E784F8725084F8739007B0FB
:10852C00BDE8F08F2DE9F74F044600F16C07FFF71B
:10853C0066FF94F88210384694F97590FFF77FFF28
:10854C0094F8831083463846FFF779FF94F884102B
:10855C0006463846FFF773FF94F974A08046BAF1CB
:10856C00000F4DDD5FFA89F5AA19524252B25946F5
:10857C0094F87A3094F87000FFF77AFF84F8700062
:10858C00064694F87100FFF765FF024684F8710007
:10859C00032B5CD8DFE803F00238445106EB0A01E8
:1085AC000544CBB2E9B200912046314600F0E2F925
:1085BC0030B30023A4F8723094F87E103846FFF7DD
:1085CC0000FF94F87F1006463846FFF7FAFE054682
:1085DC00002231462046FFF759FF2946204601224A
:1085EC00FFF754FF01213846FFF7EBFE0028EFD1CF
:1085FC0094F973304B45DFDB94F8783084F89A307B
:10860C00404603B0BDE8F08FC5F1010506EB050C43
:10861C0000EB0A010136F3B2C9B25FFA8CF6C2E77D
:10862C00CAF10101C5F1010506EB010C013201365D
:10863C000544D1B2F3B2EAB2EFE7CAF1010A013252
:10864C00AB198244D1B2DBB25FFA8AF2ABE70146D6
:10865C003346A8E7436EFF2970B503F117030D46A7
:10866C0012D8602909D9B0F890201344587818B161
:10867C001A78AA4206D1981C70BD4029F6D9B0F8D8
:10868C008E20F2E70344F1E7B0F892401C442646F2
:10869C0000213046FFF754FE022104443046FFF718
:1086AC004FFE854206F10406F2D8208840BA80B20B
:1086BC000028E1D0854201D1E01CDDE7A3781C4401
:1086CC00F3E738B50446FFF7C5FF0146B8B104F12E
:1086DC006C052046FFF793FE94F882102846FFF7AE
:1086EC00AEFE94F8831084F898002846FFF7A7FE96
:1086FC00284694F88410BDE83840FFF7A0BE38BD7A
:10870C002DE9F84300240F4680F8744005462646B0
:10871C0000F03FFA4FF6FF784FF6FE79013F17F85D
:10872C00011F28466B6898474045014608D04845CC
:10873C00F5D02846FFF7C5FFC4B22644F6B2EEE7E3
:10874C0095F9743033B195F8980018440644341BED
:10875C0004F0FF063046BDE8F883F8B51F4690F8E4
:10876C007A3004460E461546032B07D8DFE803F093
:10877C0002151A1E836E98470544EDB23946204601
:10878C0084F8706084F87150FFF764FF014618B1EB
:10879C002046FFF7C7FEC0B2F8BD836E9847361A65
:1087AC00F6B2EBE7836E98472D1AE6E7836E98478F
:1087BC000644F5E7436E10B5C3B190F9894090F9C2
:1087CC008A1090F8953080F8964080F897106BB12D
:1087DC00012B0CD190F98B309C42B8BF80F89630AD
:1087EC0090F98C30994201DD80F8973010BD90F9EA
:1087FC00882090F9863013449C42B8BF80F896309C
:10880C009142C8BF80F89720F0E7012380F895309B
:10881C00FFF7D0BF014B8366704700BF5B83000836
:10882C00014B8366704700BF5F830008426E10B532
:10883C008A42044608D041667C30FFF78DFD204605
:10884C00BDE81040FFF7B6BF10BD0000014B436000
:10885C00FFF756BF8F8B000880F87A10704770B402
:10886C0090F854609DF80C50446C921BA4460395F0
:10887C00D2B270BC604770B490F894409DF80C5024
:10888C00002C3AD0002B38D0012B04D9022D2BD13F
:10889C000131C91AC9B215F0010530D190F85B400D
:1088AC0094422AD890F85C40944226D90B44DBB20F
:1088BC008B4290F8596090F85A401CD28C4219D9CE
:1088CC00631EDBB29E4218D2B14238BF31469C4285
:1088DC0094BFC1EB0404C1EB0304E3B2846C0395B5
:1088EC00A468A44670BC6047032D02BF0132D21AA3
:1088FC00D2B2D0E731468C42E4D870BC704790F8C5
:10890C0059408C42F9D890F85A408C42F5D913440E
:10891C00DBB2934290F85B6090F85C4010D29442CA
:10892C000DD9631EDBB29E42E7D2B24238BF32464B
:10893C009C4294BFC2EB0404C2EB0304CDE7324665
:10894C009442F0D8D9E702298ABF012380F89A1003
:10895C0080F89A3070478A4206D2834208D89A42ED
:10896C0094BF0020012070478342F8D80020704744
:10897C000120704770B504460D461E4690F85C10F9
:10898C009DF8103090F85B00FFF7E5FF48B13346D7
:10899C002A4694F85A1094F85900BDE87040FFF735
:1089AC00DABF70BDF0B5012490F89A5002F00706BA
:1089BC00B440012D9DF81470E4B215D8254615D09D
:1089CC0002F0F80C026892F810E0C26C0EFB0C116D
:1089DC0011446FB90A78013B2A43624013F0FF033C
:1089EC0001F8012BF6D1F0BD0025E9E70024E7E7FB
:1089FC000A7801362A436240013B16F007060A70DA
:108A0C00DBB20CD190F85220114490F89A20012A34
:108A1C000AD80BD001242546002BE9D1E3E76D00E1
:108A2C006400EDB2E4B2F7E70124F5E71546F3E78D
:108A3C0070B590F850400168E30080F853300A7C20
:108A4C0090F851501F2A28BF1F22EB00DBB2D20036
:108A5C0080F8543080F852204A7C66199642C8BF80
:108A6C00541B4FF0F002C8BFE4B280F8553003EB52
:108A7C00C40380F8572080F856308B8A934288BF05
:108A8C00134680F85730CB8A80F8583070BDFFF70A
:108A9C00CFBF10B49DF80440019410BCFFF7DFBEAB
:108AAC0013B590F860300446009390F85E3090F85F
:108ABC005F2090F85D10FFF75DFF18B984F8940003
:108ACC0002B010BD012394F8592084F8943094F826
:108ADC005D309A4238BF84F8593094F85A2094F893
:108AEC005E309A4288BF84F85A3094F85B2094F830
:108AFC005F309A4238BF84F85B3094F85C2094F86D
:108B0C0060309A4288BF84F85C30D9E7002280F844
:108B1C00592090F8572080F85A2090F8552080F86A
:108B2C005B2090F8562080F85C20FFF7B9BF00223C
:108B3C0080F85D20FF22836CA0F85E2080F8602016
:108B4C005B68184770B50025436440F20113044676
:108B5C00049E80F8502080F8515080F8775080F8AF
:108B6C009950A0F89A30C16433684566866498477A
:108B7C002046FFF7DCFF2046FFF74CFE84F87A50C6
:108B8C0070BD19B10A2901D088B270474FF6FF7039
:108B9C007047002380F82630704710B404691346E0
:108BAC00A4460A4610BC1721604707B58DF807107C
:108BBC000DF107020121FFF7F0FF03B05DF804FB94
:108BCC00002310B404691A46A446182110BC60474F
:108BDC00002310B404691A46A446192110BC60473E
:108BEC00F8B5044616460D46FFF7EAFF402120462D
:108BFC00FFF7DBFF33462A46204627691721B84783
:108C0C002046BDE8F840FFF7E3BF10B4C4680A463D
:108C1C00A4460023152110BC604710B4C4680A4652
:108C2C00A4460023162110BC604710B4C468134638
:108C3C00A4460A4610BC17216047002310B4C46830
:108C4C001A46A446182110BC6047002310B4C4680F
:108C5C001A46A446192110BC604773B505460C464C
:108C6C00217819290DD8172919D80ED014290AD909
:108C7C00627800232846EE688DF80720B04702344E
:108C8C00EEE7FE2912D002B070BD637801212846B0
:108C9C000DF107028DF80730FFF7C7FFEFE7002350
:108CAC0028461A46EE680134B047D9E76278292184
:108CBC0028468DF8072000F026F9E0E714392DE955
:108CCC00F041044615461E46052931D8DFE801F06F
:108CDC002203031A1010FFF773FF00212046FFF741
:108CEC0064FF29462046FFF760FF2046FFF770FF20
:108CFC000120BDE8F08118212046FFF771FF183DD7
:108D0C00EDB21836182D3246F5D829462046FFF715
:108D1C0067FFEDE790F824300769FF2B04BF782339
:108D2C0080F82430BC463346BDE8F041142160473E
:108D3C000020DEE70B39F8B5044615461E4604291B
:108D4C0055D8DFE801F003540C1B29002AB9294936
:108D5C002046FFF782FF0120F8BD2749F8E73AB912
:108D6C002649FFF77AFF23689B7C84F82230F2E7D0
:108D7C002349FFF772FF2368DB7CF6E7FFF75DFF03
:108D8C0081212046FFF741FF29462046FFF745FF8A
:108D9C002046FFF75AFFDEE7FFF74FFF737994F891
:108DAC002270402107EBC30707F0FF072046FFF7AF
:108DBC002CFF390941F010012046FFF726FF07F080
:108DCC000F012046FFF729FFB179204641F0B00191
:108DDC00FFF723FF31792046C900326801F0F80112
:108DEC00013DFFF722FF15F0FF05F3D1D0E700207E
:108DFC00B2E700BF471401084C1401080414010821
:108E0C000B14010838B504460D46FFF793FF50B913
:108E1C00092D0AD00A2D07D1204600F014F820465F
:108E2C000449FFF71AFF012038BD2046024900F023
:108E3C0005F8F8E7121401085414010801608B7C42
:108E4C0080F82230704738B5002328211A4645692E
:108E5C000446A847002314211A462046E568A84773
:108E6C00204601224B2100F04EF8236820461A7947
:108E7C00292100F048F8204600224B2100F043F84D
:108E8C00236820461A79292100F03DF8204601225A
:108E9C004B2100F038F8236820465A792921BDE887
:108EAC00384000F030B813B58DF80430049B8DF8C1
:108EBC0005108DF80620009301226B460F21846863
:108ECC00A04702B010BD002310B484681A46A44613
:108EDC00092110BC6047002310B484681A46A446CC
:108EEC000A2110BC604710B484680A46A4460023CB
:108EFC000B2110BC6047002310B484681A46A446AA
:108F0C00102110BC604710B444690023A44610BC67
:108F1C0060470020704700000023036080F8233076
:108F2C0080F826308361FF23084A80F82430C0E99A
:108F3C000222C0E9042280F8283000F12C024230D1
:108F4C0002F8013B8242FBD1704700BF1F8F000823
:108F5C00F8B5069F044616461D46FFF7DDFF204672
:108F6C00C4E90216C4E90457BDE8F840FFF7ABBFEB
:108F7C00827D407D101A70470346427D817D91426F
:108F8C0081BF0169885C01325A7598BF4FF0FF3080
:108F9C007047827D437D9A4286BF0269D05C4FF058
:108FAC00FF307047836DD3F8B8201AB10021597780
:108FBC009977104770470000202938BF202138B519
:108FCC00054680690C4606F091FA10B1A8612C7721
:108FDC0038BD2146BDE83840014803F0C9BE00BF8A
:108FEC006C14010813B5C37F04468DF80710BBB190
:108FFC00817F037F0131994201D9FFF7DDFFA06921
:10900C0018B90123636002B010BD637F9DF807207F
:10901C00C254637F01200133DBB26377A377F2E79D
:10902C0001220DF10701243000F0F2F9B0FA80F0C2
:10903C004009E8E770B5C37F04460E461546CBB130
:10904C00817F037F1144994201D9FFF7B5FFA369D2
:10905C0023B901221D466260284670BD607F2A46F6
:10906C001844314606F086F9637F2B44DBB26377F4
:10907C00A377F1E792B2243000F0CAF9002818BFA8
:10908C000025E9E700214FF47A72C0E90112054A84
:10909C000260054AD18DA0F88010928DA0F8822034
:1090AC00704700BFF4140108D018010838B500232C
:1090BC000446C0E90433C0E90633C0F8B8304B00AD
:1090CC00DBB280F82030C067A1F13300414241414E
:1090DC0004F1240584F8B61084F8B72028464FF420
:1090EC008042084900F0AAF894F8B6304BB92846EB
:1090FC00054900F008FA2846BDE83840034900F05D
:10910C00FBB938BDA0860100B18F00087191000831
:10911C000A463321FFF7CABF243000F051B90023AF
:10912C0043774FF480734900C175C38370470000C7
:10913C0038B5037D05468B420C4609D2202938BF31
:10914C0020240069214606F0D1F910B128612C7554
:10915C0038BD2146BDE83840014803F009BE00BFC8
:10916C006C14010870B5846D0546D4F8BC30466E9D
:10917C00EBB1627DA37D9A4219D331462046FFF7AD
:10918C00D7FF236923B94FF4CF71094803F0F0FDE1
:10919C003246206905F1700106F0ECF80023A67543
:1091AC0063753046D4F8BC30BDE87040184770BDCC
:1091BC00841401080346806918B100211A7F06F057
:1091CC00E7B8704738B50446C9B94FF42A0363654C
:1091DC0094F8B630012B15D1A37FA269E17D04F17F
:1091EC00240000F049F9042828BF042045B2204689
:1091FC00FFF7E0FF00236377E383E8B238BD4FF05D
:10920C002A43E4E70425F8E70121FFF7DBBF00213F
:10921C0010B5044641758175006910B1227D06F0C8
:10922C00B7F8002320466377A377FFF7C3FF10BD81
:10923C000148FFF727BF00BF840900202DE9F34147
:10924C000D4616461F460446002800F086805349FA
:10925C00B0F95C0003F058FD51498046B4F95E004A
:10926C0003F052FD0146B8F1000F76D0002874D0FF
:10927C00404603F061FD206000286ED0494B04F19C
:10928C00040898426CD103F5DE33DA6942F400121B
:10929C00DA61DA6902F400120092009A1A6942F457
:1092AC0000121A611A6922F400121A6142F21F03A9
:1092BC00A4F860303C4BC3F800803949B4F95E0027
:1092CC0003F002FDB4F95C00344903F0FDFC3748AF
:1092DC0023688542636006D93548854203D93548F1
:1092EC00854288BF00203149FF238D428CBF4FF44B
:1092FC0080450025C4E903570025E36194F89330B9
:10930C002A46AB420CBF2B4640230221C4E9083548
:10931C00A060666194F96000A56184F8415000F08A
:10932C00EDF994F9600000F01BFA2A46022194F939
:10933C00610000F0E3F994F9610000F011FA404685
:10934C0000F0C2FB20B140F2D5211B4803F010FD08
:10935C0000236366022384F8913002B0BDE8F081EB
:10936C00164B9842A9D103F5DC33DA6942F480023A
:10937C00DA61DA6902F480020192019A1A6942F404
:10938C0080021A611A6922F480021A6142F22123C6
:10939C00A4F86030044BC3F804808EE7A4160108CF
:1093AC007416010800540040440A0020A0860100F5
:1093BC00801A060040420F001415010800580040A6
:1093CC00104B10B59942044606D90F4B994203D95C
:1093DC000E4B994288BF00236068026822F001029C
:1093EC000260A360074B201D99428CBF4FF4804153
:1093FC000021E16000F068FB6268136843F0010330
:10940C00136010BDA0860100801A060040420F00B8
:10941C00202A30B50ED800239CB2A24204D8D2B276
:10942C0080F89020002030BDCD5CC41884F87050BA
:10943C000133F1E70120F6E710B56423044604304C
:10944C0000F0E2FB02280AD0032801D068B910BD55
:10945C0094F84130202B0CBF02200520F7E794F83C
:10946C004130202B18BF0620F1E794F84130202B17
:10947C000CBF02200420EAE72DE9F34105460C4617
:10948C0090461F4600F022F906463FB901222146BC
:10949C00284602B0BDE8F041FFF7CEBF2B6B043578
:1094AC002146009342463B46284600F057FC0446B2
:1094BC0050B1002002B0BDE8F08100F007F9841B28
:1094CC00284601F0FCFA30B9284601F0F5FA2028BC
:1094DC0001D0632CF1D9284601F0F1FA632C07D89E
:1094EC00820605D4430705D40028E2D00420E1E726
:1094FC000520DFE70320DDE720B119B181660430D8
:10950C0000F01CBD704720B119B1C166043000F0E9
:10951C0015BD7047C36810B59A4204461DD179B980
:10952C00836E80F88D100BB104389847204694F860
:10953C008C2004F16C012023BDE8104000F088BCA5
:10954C0000230122036680F88D20016E0423BDE800
:10955C00104001446C3100F0B6BC10BD10B590F851
:10956C008D300446012B04D1036E13B1436E0438C5
:10957C009847022384F88D30002320462366BDE8EB
:10958C00104000F0DBBC036E1F2BDEBF036E0133FB
:10959C00036690F88D30012BDAB205D1016E0423ED
:1095AC0001446C3100F08FBC7047002380F88C3084
:1095BC00704790F88E300BB900F0C0BC70470000BB
:1095CC00014B186800F0B8BD440A0020014B186824
:1095DC0001F0D6B9440A0020014B586800F0ACBD2C
:1095EC00440A0020014B586801F0CAB9440A002013
:1095FC0003460A4910B508680344EFF30882934206
:10960C0005D90C224FF0FF30054B1A6010BD054AEE
:10961C00054C121B9342F4D20B60F7E704000020B8
:10962C00901700200050002000040000FEE700000E
:10963C001622024B4FF0FF301A6070479017002033
:10964C00012070477047000038B50E4B054618785E
:10965C004FF47A73B3FBF0F30B4A1068B0FBF3F0E2
:10966C0000F0A0F8044658B90F2D09D80246294637
:10967C004FF0FF3000F042F82046044B1D6038BD1F
:10968C000120FCE708000020240000200C00002032
:10969C00074A08B51368032043F01003136000F069
:1096AC001BF80020FFF7D0FFFFF7CCFF002008BD10
:1096BC0000200240034A044B11681B780B441360D2
:1096CC00704700BF980D002008000020014B18685F
:1096DC00704700BF980D002007490302CA6803F4C5
:1096EC00E06322F4E0621204120C134343F0BF63F4
:1096FC0043F40033CB60704700ED00E0164B30B5FF
:10970C00DC68C4F30224C4F10703251D042B28BF15
:10971C000423062D4FF0FF3598BF002405FA03F300
:10972C0088BF033C21EA0303A34005FA04F422EAB0
:10973C000402002843EA0203ACBF00F16040074A70
:10974C004FEA0313DBB2ABBF00F5614000F00F0032
:10975C0080F80033135430BD00ED00E014ED00E050
:10976C00002808DB0123420900F01F0003FA00F077
:10977C00014B43F82200704700E100E000280DDBAC
:10978C000122430900F01F0002FA00F0044A2033C2
:10979C0042F82300BFF34F8FBFF36F8F704700BFAA
:1097AC0000E100E00138B0F1807F0AD2F021064BD5
:1097BC00064A586082F823100020072298601A602D
:1097CC0070470120704700BF10E000E000ED00E0A2
:1097DC00002809DB0122430900F01F0002FA00F007
:1097EC00024A603342F82300704700BF00E100E0FA
:1097FC00704708B5FFF7FCFF08BD000008B590F8EE
:10980C002130022B03D004238363012008BD03689D
:10981C001A6822F00E021A601A6822F001021A600D
:10982C00174A93421CD0143293421BD014329342E9
:10983C001AD0143293421AD0143293421AD01432E2
:10984C0093420CBF4FF480134FF080730D4A53605A
:10985C004FF480730384436B7BB198470020D5E7AA
:10986C000123F3E71023F1E74FF48073EEE74FF495
:10987C008053EBE74FF48033E8E71846C6E700BFA8
:10988C00080002400000024090F8210070470000E0
:10989C002DE9F74F00221646644BDFF8A0C1DFF824
:1098AC00A0E10D6835FA06F402D103B0BDE8F08FE3
:1098BC004FF0010808FA06F805EA080438EA05052D
:1098CC007CD14D68032D07D8013D022D00F2888014
:1098DC00DFE805F0969BA100122D00F099806FD85F
:1098EC00112D00F08F80FF2C98BF82464FF00F098E
:1098FC0088BF00F1040A4FEA8605DAF8008088BFB9
:10990C00203D09FA05FB28EA0B0802FA05F548EA9E
:10991C000505CAF80050D1F804A01AF0805F4DD0AC
:10992C00434F26F00308BD6908F1804845F0010556
:10993C00BD61BD6908F5803805F00105019506F09B
:10994C00030B019D4FEA8B0BD8F8085009FA0BF961
:10995C0025EA0909374DA84261D005F58065A84272
:10996C005FD005F58065A8425DD005F58065A842FD
:10997C000CBF0325042505FA0BF545EA0905C8F8C3
:10998C0008501D681AF4803F14BF2543A5431D6081
:10999C005D681AF4003F14BF2543A5435D609D68C4
:1099AC001AF4801F14BF2543A5439D60DD681AF48B
:1099BC00001F14BF2C4325EA0404DC60013670E759
:1099CC001D4FBD420CD017D8DFF878904D4507D00D
:1099DC0009F570294D4503D0A9F580194D4582D163
:1099EC008A68D2B1012A08BFC0F810804FF0080273
:1099FC0018BFC0F8148076E76545F1D07545EEE7E1
:109A0C00CA6870E7CA6804326DE7CA6808326AE748
:109A1C00CA680C3267E7002265E7042263E7002579
:109A2C00A9E70125A7E70225A5E700BF000401402F
:109A3C00001002400008014000002210000031100C
:109A4C000000321000001210044A08B5516901429E
:109A5C0002D0506103F0C2FB08BD00BF00040140FE
:109A6C002DE9F84606460F4691461D464FEA114A27
:109A7C003368BAF1010F0CBF5C699C6927EA0404D6
:109A8C00A4B2B4FA84F46409A14501D0002017E013
:109A9C006A1CEED0FFF71AFE089BC01AA84201D828
:109AAC00002DE5D1002320220120336386F83D20D0
:109ABC0086F83E30326C86F83C3042F0200232643C
:109ACC00BDE8F8867047000070B5044608B901205F
:109ADC0070BD90F83D3003F0FF021BB980F83C20BC
:109AEC00FFF7F0FF2423226884F83D30136823F03D
:109AFC000103136001F056FF3F4A6368934294BF21
:109B0C003E4A3F4A90428CBF00220122002ADED1FD
:109B1C003C4E2268B0FBF6F65168013821F03F014B
:109B2C00314351603449156A8B4281BF4FF49671B1
:109B3C0071434FF47A76B1FBF6F125F03F0594BFF3
:109B4C00711C013129431162D1692B4D21F44F4114
:109B5C00AB4221F0FF0132D85B00B0FBF3F0431CA9
:109B6C0040F6FC70034242D0C3F30B030B43D361AA
:109B7C001168D4E9073021F0C00103430B43136093
:109B8C009168D4E9030321F40341034321F0FF015D
:109B9C000B439360D168D4E9053021F0FF010343F6
:109BAC000B43D3601368002043F0010313602023A0
:109BBC00206484F83D30206384F83E0088E7A56873
:109BCC0055B903EB4303B0FBF3F30133C3F30B03BE
:109BDC007BB143F40043C9E719256B43B0FBF3F3A6
:109BEC000133C3F30B0323B143F44043BEE7042317
:109BFC00BCE70123BAE700BFA08601007F841E00EA
:109C0C00FF083D0040420F002DE9F04F044685B09F
:109C1C001E460F469146FFF759FD94F83D30054618
:109C2C00202B03D0022005B0BDE8F08F0090192343
:109C3C00012220464849FFF713FF0028F2D194F87F
:109C4C003C30012BEED0012384F83C3023684FF0DC
:109C5C00010A1A68DFF800B1D20758BF1A6807F07A
:109C6C00FE075CBF42F001021A601A6822F400621F
:109C7C001A60242384F83D3000232364A3F5803339
:109C8C00E36222684FF001111368204643F480739D
:109C9C001360334600220095FFF7E2FE08B1012065
:109CAC00C1E723684FF0A0081F61FFF70FFD0546C1
:109CBC0023685A695B69C2F34002C3F3802394F8AA
:109CCC003D10A02901D0134321D04FF02008236868
:109CDC0084F83D805A6912F0020F1A6842F400723F
:109CEC001A6024D0002203925A69204603929B6981
:109CFC0001220393039B184919230095FFF7B0FE2B
:109D0C000028CCD184F83D8084F83C008BE7FFF729
:109D1C00DDFC401BB04200D80EB984F83D802368AE
:109D2C005A695B69C2F34002C3F38023C7E76FF43F
:109D3C00806259465A612046192301220095FFF78B
:109D4C008FFE0028ABD10AF1010ACA4599D384F8D9
:109D5C003D8084F83C00A2E702001000F7B5002417
:109D6C000094019490F83D40089D202C02D00220D4
:109D7C0003B0F0BD082D354F01D0012D1ED146F298
:109D8C00A8163C68B4FBF6F6192474430194019CA4
:109D9C00013C0194019C6CB92023046380F83D3094
:109DAC0080F83E40036C80F83C4043F02003036491
:109DBC000120DDE70468A469A407E8D446F2A816DC
:109DCC003C68B4FBF6F6192474430194019C013CE5
:109DDC000194019C002CDFD004682668B705F5D4EB
:109DEC0090F83C60012EC2D02668F6075EBF26684C
:109DFC0046F001062660266826F4006626602126B9
:109E0C0080F83D60102680F83E600026066443858D
:109E1C00438DC56241640385036B42620093009BD2
:109E2C00112B05D1B5F52A0F02D0B5F12A4F03D16C
:109E3C00236843F480732360002380F83C3062680D
:109E4C00184642F4E062626092E700BF24000020F2
:109E5C0037B590F83D4004F02804282C31D1002966
:109E6C002DD0002A2BD090F83C40012C29D005682D
:109E7C002C68E4075EBF2C6844F001042C602C684D
:109E8C0024F400642C60292480F83D40202480F8C0
:109E9C003E40002404644285428DC36201946B6988
:109EAC0041620193AB69028580F83C4020460193E6
:109EBC00019B6B6843F4E0636B6003B030BD012021
:109ECC00FBE70220F9E737B590F83D4004F0280491
:109EDC00282C31D100292DD0002A2BD090F83C40D1
:109EEC00012C29D005682C68E4075EBF2C6844F06F
:109EFC0001042C602C6824F400642C602A2480F863
:109F0C003D40202480F83E40002404644285428D6C
:109F1C00C36201946B6941620193AB69028580F85D
:109F2C003C4020460193019B6B6843F4E0636B60FB
:109F3C0003B030BD0120FBE70220F9E790F83D307B
:109F4C00202B14D1282380F83D30036800201A6898
:109F5C00D2075EBF1A6842F001021A601A6842F416
:109F6C0080621A605A6842F440725A60704702204C
:109F7C00704770477047704770477047002370B543
:109F8C00406A026890F83D101468466B856B24F4A7
:109F9C008064B362AB62146043851468736324F00D
:109FAC0001046B63146090F83D40C9B2602C08D179
:109FBC00202280F83D2080F83E300364FFF7DDFF5F
:109FCC0070BD01F0280128290DD1146844F001045A
:109FDC001460146844F480641460036380F83D10CA
:109FEC00FFF7E7FAECE7202280F83D2080F83E30BE
:109FFC00F6E7000010B590F83D2090F83E100446AE
:10A00C0010290368D2B212D1222A10D1196821F476
:10A01C00006119605968090504D4602A1CBF20220C
:10A02C0084F83D200022226384F83E2007E002F0F1
:10A03C0028012829EED10022226384F83D105A68A9
:10A04C0012F400624CD05A68606B22F400625A60C1
:10A05C0090F82130012B364B28D04363FFF7CEFB11
:10A06C0050B12268606B136823F001031360202346
:10A07C0084F83D30436B984794F83D30226CDBB24A
:10A08C00520712D5282B10D122682046536823F48E
:10A09C00E0635360274B2022E3620023236384F8A0
:10A0AC003D2084F83E30FFF759FA10BDA06B436396
:10A0BC00FFF7A4FB0028DFD023685A69520605D5A8
:10A0CC001A69636A1A70636A013363622268A06B4F
:10A0DC00136823F001031360202384F83D30C9E793
:10A0EC0094F83D10602915D1202184F83D1022648C
:10A0FC005A69500605D51A69636A1A70636A013386
:10A10C00636222682046136823F001031360FFF793
:10A11C0034FFB1E75A69510605D51A69636A1A709A
:10A12C00636A013363622046FFF743FAA4E700BF7A
:10A13C00899F00080000FFFF70B5036804465A6849
:10A14C00C16A90F83E5090F83D00102D8CB0EEB2E4
:10A15C00C0B202D0402E40F0B7829D695869C60744
:10A16C0007D4B1F52A0F02D0B1F12A4F52D10CB05D
:10A17C0070BD91054ED5E26AB2F52A0F0CD10122C1
:10A18C00E26294F83E20402A11D1226D52B9626CE1
:10A19C0002F0FE021A61EAE7E26AB2F12A4FF0D14C
:10A1AC000822EDE7626C42F00102D2B2F2E72269BA
:10A1BC00B2F5804F1BD194F83D20212A626C12D14C
:10A1CC0002F0FE021A61626B12B9A16B0029CED0AB
:10A1DC00926A1AB9A26B926A002AC8D05A6842F4E1
:10A1EC0000625A60C3E742F00102D2B2EAE7226D84
:10A1FC0032B9626CD21102F0060242F0F002C9E7E9
:10A20C00226D012AB3D1626CD21102F0060242F027
:10A21C00F102BFE7060703D5910501D5626CE4E7AF
:10A22C00860740F1E680910540F1E38094F83E10FA
:10A23C00E26A256B94F83D00C9B2222840F0D18027
:10A24C00206D40B9402906D100905A6900929B6953
:10A25C000093009B8BE7216D81B92069B0F5404FCD
:10A26C000CD101915A6901929A690192019A1A686A
:10A27C0042F480721A60236D013328E0618D89B23B
:10A28C0051B902915A6902929A690292029A1A6819
:10A29C0042F400721A6019E0618D89B201294AD129
:10A2AC0012F5803F1CD11A6822F480621A605A6839
:10A2BC0012F400620DD01A6822F480621A60002237
:10A2CC0003925A6903929B690393039B00232365B2
:10A2DC004DE704925A6904929A690492049AD6E75B
:10A2EC00082A1CD0202A1AD0122D0DD1012A16D1E1
:10A2FC001A6822F480621A60002205925A6905924B
:10A30C009B690593059BE1E7102AF1D88F4921FA47
:10A31C0002F2D607ECD51A6842F48062EBE71A68B1
:10A32C0022F480621A60002206925A6906929A6997
:10A33C000692069AABE7618D89B2022933D1102AB5
:10A34C0005D88249D140C94311F0010120D01968C8
:10A35C0041F40061196000210791596907919969CD
:10A36C0007910799196821F48061196059680D05E6
:10A37C00ACD512F5803F06D0511E1F29A6D8744AC1
:10A38C00CA40D007A2D55A6842F480525A609DE761
:10A39C00186840F4806018600891596908919969AF
:10A3AC0008910899E2E7196841F4806119605968CD
:10A3BC0009050ED512F5803F07D0013A1F2A08D89F
:10A3CC00634921FA02F2D60703D55A6842F4805247
:10A3DC005A60002209925A6909929B690993099B58
:10A3EC0074E700220A925A690A929B690A930A9BA3
:10A3FC00BDE66D07596840F1AD800E053FF5B7AE6F
:10A40C000506C0F3800169D5500567D5002968D1D0
:10A41C0094F83D20258D94F83E10D2B2E06AC9B272
:10A42C00C5B9212A18D1082878D0202876D010F563
:10A43C00803F73D05A6822F4E0625A601123236380
:10A44C00002384F83E302023204684F83D30FFF76B
:10A45C0090FD8CE6212A05D040297FF488AE222A73
:10A46C007FF485AE628D92B21AB95A6822F480627A
:10A47C00B7E694F83E20402A26D1226D62B9E26CF0
:10A48C00012AA26C04D1D2B21A61236D02331EE7E9
:10A49C00C2F307221A61EEE6226D012A02D1A26CE8
:10A4AC00D2B2F7E7226D022A7FF461AE94F83D2018
:10A4BC00222A04D11A6842F480721A6057E694F882
:10A4CC003D20212A7FF453AE626A12F8011B1961F8
:10A4DC006262638D013B9BB2638548E600293FF4C1
:10A4EC0046AE92057FF543AEE16A94F83D20212AF1
:10A4FC007FF43DAE628D92B2002AE5D108290DD0D1
:10A50C0020290BD011F5803F08D0596821F4E06167
:10A51C0059601123236384F83E2094E75A6820463F
:10A52C0022F4E0625A601A6842F400721A60002346
:10A53C002022236384F83D2094F83E2084F83E309A
:10A54C00402A84D1FFF717FD11E600BF140001006B
:10A55C00818000800E053FF50AAE4506C0F38001F0
:10A56C0048D5500546D5002947D194F83D20222ADC
:10A57C007FF4FDAD628D92B2032A14D91A69636A15
:10A58C001A70636A01336362638D013B9BB263850E
:10A59C00638D9BB2032B7FF4EAAD2268536823F4DE
:10A5AC0080635360E3E5E06A02283FF4E0AD012AE2
:10A5BC003FF6DDAD1A6822F480621A605A6822F404
:10A5CC00E0625A601A69636A1A70636A01336362E3
:10A5DC00638D013B9BB26385202384F83D3094F856
:10A5EC003E3084F83E10402B68D121632046FFF7A3
:10A5FC00C3FCBCE500293FF4BAAD92057FF5B7ADBD
:10A60C00E26A608D616A80B2042809D15A6822F42A
:10A61C0080625A601B690B70636A0133636258E78E
:10A62C00608D80B203280CD15868042A20F4806015
:10A63C005860EFD0022AEDD01A6822F480621A60BA
:10A64C00E8E7608D80B20228E4D1012A01D0102AFB
:10A65C0028D11A6822F480621A601B690B70626A36
:10A66C00531C6362638D013B9BB2638523681B693A
:10A67C005370636A226801336362638D013B9BB242
:10A68C006385536823F440735360202384F83D3072
:10A69C0094F83E30402B4FF0000384F83E300DD13F
:10A6AC002363A3E7042A01D0022A03D11A6842F4D7
:10A6BC008062D1E71A6842F40072CDE7122320467B
:10A6CC002363FFF757FC52E5216C11B30025596940
:10A6DC008E0728D5960526D5226C02B19D6994F873
:10A6EC003D2002F02802282A16D15A686FEA9501FB
:10A6FC0022F480625A602B064FF00003204654BFB0
:10A70C00A289228B01F0010184F83C30FEF702FF94
:10A71C002DE59D695969DBE76FF002025A61002350
:10A72C0084F83C3023E5CE0640F1B180950540F12C
:10A73C00AE8094F83D505A68EDB222F4E0625A6053
:10A74C0000220B925A690B921A6842F001021A60AD
:10A75C000B9A1A6822F480621A605A68120520D586
:10A76C0005F0F702222A4AD1A06B0268526892B215
:10A77C006285628D92B21AB1226C42F0040222649C
:10A78C005A6822F400625A60FFF77EF8012808D05C
:10A79C00A06B794B4363FFF731F810B1A06B436B9F
:10A7AC009847638D9BB213B323685A69560709D532
:10A7BC001A69636A1A70636A01336362638D013BC1
:10A7CC009BB2638523685A69500609D51A69636A76
:10A7DC001A70636A01336362638D013B9BB26385BC
:10A7EC00638D9BB21BB1236C43F004032364236C75
:10A7FC0013B320460CB0BDE87040FFF7FBBB606B99
:10A80C000268526892B26285628D92B21AB1226C61
:10A81C0042F0040222645A6822F400625A60FFF784
:10A82C0033F80128BDD0606B534B4363FEF7E6FF52
:10A83C000028B6D0606BB2E72A2D06D123632823FB
:10A84C00204684F83D30FEF79EFE94F83D30282BD0
:10A85C000CD14A4B2022E36200232046236384F868
:10A86C003D2084F83E30FEF779FE80E4236B222BEA
:10A87C0002D0222D7FF47BAC00232022236384F8AA
:10A88C003D2084F83E302046FEF77DFE6FE400F05C
:10A89C00F7002128C1F3800535D1090627D55605C7
:10A8AC0025D53DBB94F83D10628DC9B292B2002AF9
:10A8BC003FF45DAC626A12F8015B1D616262628DED
:10A8CC00013A92B26285628D92B2002A7FF44FAC4B
:10A8DC0029297FF44CAC5A6822F480625A602823F0
:10A8EC002063204684F83D30FEF75FFE3FE4002DE8
:10A8FC003FF43DAC95057FF53AAC628D92B2002ADF
:10A90C003FF435ACE0E5480627D5510525D53DBBD0
:10A91C0094F83D20618DD2B289B200293FF427AC66
:10A92C001969636A1970636A01336362638D013B51
:10A93C009BB26385638D9BB2002B7FF418AC2A2AE3
:10A94C007FF415AC2268536823F480635360222390
:10A95C002363282384F83D3095E7002D3FF407ACA2
:10A96C0092057FF504AC628D92B2002A3FF4FFABE6
:10A97C001A69636A1A704FE6899F00080000FFFF8E
:10A98C00F8B5036804465F695E68FA05C7F30025ED
:10A99C000BD5F005C6F3002507D56FF480720125A1
:10A9AC005A611A6842F400421A60B90506D5F205DC
:10A9BC0042BF6FF4007245F002055A61780537D535
:10A9CC00F10535D594F83EC0618D94F83D20BCF16D
:10A9DC00200F206B89B2D2B25AD1002958D102F083
:10A9EC00F701212903D0282A52D1212850D194F8DB
:10A9FC003D20E16AD2B2082901D020292AD1282A87
:10AA0C0028D12C4A2046E2625A6822F4E0625A604D
:10AA1C006FF480625A611A6822F480621A60002313
:10AA2C002022236384F83D2084F83E30FEF796FD07
:10AA3C003A053BD5F30539D56FF40062236845F030
:10AA4C0008055A61236C20461D432564BDE8F84077
:10AA5C00FFF7D0BA212A17D116492046E1622263AA
:10AA6C00202284F83D20002284F83E205A6822F4EB
:10AA7C00E0625A606FF480625A611A6822F4806254
:10AA8C001A60FEF792FDD3E76FF480625A61CFE74C
:10AA9C006FF480625A6194F83E2045F00405102A48
:10AAAC0002BF1A6842F400721A60C1E7002DC9D1C6
:10AABC00F8BD00BF0000FFFF90F83D007047006C30
:10AACC007047F0B5044687B0002867D090F8A934D9
